:100000000C94B1000C94C3000C94C3000C942D020A
:100010000C94D9010C94C3000C94C3000C94C3003D
:100020000C94C3000C94C3000C94C3000C94C30044
:100030000C94C3000C94AE010C94C3000C94C30048
:100040000C94C3000C94C3000C94C3000C94C30024
:100050000C94C3000C94C3000C94C3000C94C30014
:100060000C94C3000C94C30000407A10F35A00A013
:10007000724E18090010A5D4E80000E87648170071
:1000800000E40B54020000CA9A3B000000E1F505B1
:10009000000080969800000040420F000000A086FB
:1000A00001000000102700000000E803000000002D
:1000B0006400000000000A000000000001000000D1
:1000C00000002C76D888DC674F0823DFC1DFAE59EB
:1000D000E1B1B796E5E3E453C63AE651997696E87E
:1000E000E6C28426EB898C9B62ED407C6FFCEFBC02
:1000F0009C9F40F2BAA56FA5F490055A2AF75C932D
:100100006B6CF9676DC11BFCE0E40D47FEF520E662
:10011000B500D0ED902E0300943577050080841E45
:10012000080000204E0A000000C80C333333330FA0
:10013000986E12831141EF8D2114893BE65516CF3D
:10014000FEE6DB18D1844B381BF77C1D901DA4BB49
:10015000E424203284725E228100C9F124ECA1E5FE
:100160003D2711241FBECFEFD4E0DEBFCDBF21E07D
:10017000A0E0B1E001C01D92A830B207E1F70E94F3
:10018000B0020C947F070C940000EF920F93CF9372
:10019000DF93CDB7DEB72D970FB6F894DEBF0FBE55
:1001A000CDBF9C838B836D834E832F830887E98625
:1001B00081EC90E028E1FC0120838B819C819C01F3
:1001C000990F440B550B80ED92E1A3E1B0E0BC0127
:1001D000CD010E94D704DA01C90101979A8389836E
:1001E00085EC90E029813A81232F3327FC0120837D
:1001F00084EC90E02981FC0120838D81813029F4F9
:1002000080EC90E022E0FC0120838E81882F90E03A
:1002100087309105B1F0883091051CF4069739F0CC
:100220002EC088309105B9F00997F9F028C082EC0A
:1002300090E022EC30E0F90120812260FC01208373
:100240001EC082EC90E022EC30E0F90120812460B5
:10025000FC01208314C082EC90E022EC30E0F90134
:1002600020812660FC0120830AC082EC90E022EC11
:1002700030E0F90120812E60FC01208300008F8195
:10028000882349F482EC90E022EC30E0F9012081EF
:100290002062FC0120838F81813049F482EC90E060
:1002A00022EC30E0F90120812063FC012083888565
:1002B000823029F482EC90E028E0FC0120838985DB
:1002C000882349F081EC90E021EC30E0F9012081B5
:1002D0002068FC0120832D960FB6F894DEBF0FBE78
:1002E000CDBFDF91CF910F91EF900895CF93DF9322
:1002F0001F92CDB7DEB78983000080EC90E0FC014F
:100300008081882F90E080729927892BB1F386EC49
:1003100090E02981FC0120830F90DF91CF91089517
:10032000CF93DF9300D0CDB7DEB79A8389830BC01C
:1003300089819A819C012F5F3F4F3A832983FC0179
:1003400080810E94760189819A81FC0180818823C5
:1003500079F70F900F90DF91CF9108951F920F9230
:1003600000905F000F9211248F939F93AF93BF93E0
:10037000CF93DF93CDB7DEB7809104019091050153
:10038000A0910601B091070111968093040190930A
:100390000501A0930601B0930701DF91CF91BF91B2
:1003A000AF919F918F910F9000925F000F901F90DF
:1003B00018951F920F9200905F000F9211242F93B7
:1003C0003F938F939F93EF93FF93CF93DF93CDB79B
:1003D000DEB786E290E0FC018081882F90E081709A
:1003E0009927892B61F58091000190910101892B5A
:1003F00031F584E890E0FC01118210821092040132
:1004000010920501109206011092070181E090E020
:10041000909301018093000186E390E0FC018081CC
:10042000882F90E082709927892B49F086E390E02D
:1004300026E330E0F90120812260FC012083DF9176
:10044000CF91FF91EF919F918F913F912F910F90BD
:1004500000925F000F901F9018951F920F920090CE
:100460005F000F9211248F939F93EF93FF93CF938D
:10047000DF93CDB7DEB783E290E0FC018081882F67
:1004800090E081709927892B61F48091000190910F
:100490000101019731F481E090E090930301809392
:1004A0000201DF91CF91FF91EF919F918F910F907A
:1004B00000925F000F901F901895CF93DF93CDB7F8
:1004C000DEB787E290E027E230E0F9012081FC010D
:1004D000208388E690E028E630E0F9012081226060
:1004E000FC0120838CE690E021E0FC012083DF9179
:1004F000CF910895CF93DF93CDB7DEB784E290E03C
:1005000024E230E0F9012081FC01208388E690E0BC
:1005100028E630E0F90120812160FC0120838BE690
:1005200090E021E0FC012083DF91CF910895CF93EB
:10053000DF93CDB7DEB781E890E021E830E0F90144
:1005400020812160FC0120838FE690E02FE630E0DF
:10055000F90120812160FC012083DF91CF91089572
:10056000EF920F931F93CF93DF93CDB7DEB76C97C6
:100570000FB6F894DEBF0FBECDBF19821A821B8260
:100580001C821D821E821F82188619861A861B866F
:100590001C861E861D860E947A020E945D020E94B1
:1005A0009702EE24E39401E022E048E060E080E876
:1005B00090E70E94C50084E290E024E230E0F90177
:1005C00020812660FC01208378941F86188A198A6E
:1005D0001A8A00008091000190910101892BD1F3CA
:1005E00000008091020190910301892BD1F385E2F3
:1005F00090E025E230E0F90120812460FC012083B5
:1006000084E890E0FC01808191819C0140E050E011
:100610008091040190910501A0910601B09107011C
:10062000820F931FA41FB51FBC01CD010E94DE03E2
:10063000DC01CB018F87988BA98BBA8B20E030E44B
:100640004CE956E46F85788989899A890E946A0302
:10065000DC01CB0189839A83AB83BC8329813A81F6
:100660004B815C8160E070E080E890E40E946A0366
:10067000DC01CB0126ED35E443E652E4BC01CD01BB
:100680000E946A04DC01CB018D839E83AF83B8870F
:100690009E012D5E3F4F8D819E81AF81B88589017E
:1006A00020E041E0BC01CD010E94F90485E290E028
:1006B000FC011082CE0143960E9490018CE20E94C0
:1006C0007601109201011092000110920301109224
:1006D00002017BCF0E947E030C9430040E94290407
:1006E00058F00E94220440F029F45F3F29F00C9456
:1006F000190451110C9464040C941F040E944104C9
:1007000068F39923B1F3552391F3951B550BBB2740
:10071000AA2762177307840738F09F5F5F4F220F85
:10072000331F441FAA1FA9F335D00E2E3AF0E0E87C
:1007300032D091505040E695001CCAF72BD0FE2FC6
:1007400029D0660F771F881FBB1F2617370748075A
:10075000AB07B0E809F0BB0B802DBF01FF27935812
:100760005F4F3AF09E3F510578F00C9419040C94B9
:1007700064045F3FE4F3983ED4F3869577956795DC
:10078000B795F7959F5FC9F7880F911D9695879547
:1007900097F90895E1E0660F771F881FBB1F621766
:1007A00073078407BA0720F0621B730B840BBA0B24
:1007B000EE1F88F7E0950895E89409C097FB3EF492
:1007C00090958095709561957F4F8F4F9F4F99239E
:1007D000A9F0F92F96E9BB279395F695879577951C
:1007E0006795B795F111F8CFFAF4BB0F11F460FFDC
:1007F0001BC06F5F7F4F8F4F9F4F16C0882311F034
:1008000096E911C0772321F09EE8872F762F05C047
:10081000662371F096E8862F70E060E02AF09A95E2
:10082000660F771F881FDAF7880F9695879597F9D7
:10083000089597F99F6780E870E060E008959FEF62
:1008400080EC089500240A94161617061806090667
:10085000089500240A941216130614060506089536
:10086000092E0394000C11F4882352F0BB0F40F4BE
:10087000BF2B11F460FF04C06F5F7F4F8F4F9F4FFE
:10088000089557FD9058440F551F59F05F3F71F080
:100890004795880F97FB991F61F09F3F79F08795E7
:1008A0000895121613061406551FF2CF4695F1DF70
:1008B00008C0161617061806991FF1CF8695710500
:1008C000610508940895E894BB2766277727CB0134
:1008D00097F908950E947D040C9430040E9422042C
:1008E00038F00E94290420F0952311F00C9419048B
:1008F0000C941F0411240C9464040E94410470F3AE
:10090000959FC1F3950F50E0551F629FF001729FB4
:10091000BB27F00DB11D639FAA27F00DB11DAA1FC3
:10092000649F6627B00DA11D661F829F2227B00D10
:10093000A11D621F739FB00DA11D621F839FA00D9B
:10094000611D221F749F3327A00D611D231F849FEB
:10095000600D211D822F762F6A2F11249F57504042
:100960009AF0F1F088234AF0EE0FFF1FBB1F661FBD
:10097000771F881F91505040A9F79E3F510580F086
:100980000C9419040C9464045F3FE4F3983ED4F390
:10099000869577956795B795F795E7959F5FC1F72A
:1009A000FE2B880F911D9695879597F90895A1E2E2
:1009B0001A2EAA1BBB1BFD010DC0AA1FBB1FEE1FD9
:1009C000FF1FA217B307E407F50720F0A21BB30B24
:1009D000E40BF50B661F771F881F991F1A9469F7A0
:1009E00060957095809590959B01AC01BD01CF01FC
:1009F0000895EF920F931F93CF93DF93E80147FD84
:100A000002C034E001C034E1E42F440FFF0BF7FFD4
:100A100003C0F195E195F109E32E022F2E2FAE01CF
:100A20000E941905CE01DF91CF911F910F91EF9098
:100A300008954F925F926F927F929F92AF92BF9272
:100A4000CF92DF92EF92FF920F931F93CF93DF939A
:100A5000CDB7DEB729970FB6F894DEBF0FBECDBF76
:100A60006A01122FB02E2BE3201720F0FF24F394FD
:100A7000F00E02C0BCE3FB2E0F2D27E0AE014F5F4E
:100A80005F4F0E94A706AC018981982F9970913021
:100A900031F0E1FC06C0E0FE06C090E205C09DE238
:100AA00003C09BE201C090E0EE2DE07183FF3CC0EB
:100AB000911102C083E001C084E0811718F4212F56
:100AC000281B01C020E0E1110BC0F601822F30E2AB
:100AD000882319F031938150FBCFC20ED11C20E046
:100AE000992329F0D6019C93F60131966F01C60136
:100AF0000396E2FE0AC03EE4D6013C9341E411961F
:100B00004C93119712963C9306C03EE6F601308353
:100B100041E641833283FC01322F40E2332309F462
:100B200042C041933150FACF82FF44C0911102C0BC
:100B300083E001C084E0811718F4212F281B01C035
:100B400020E0E1110BC0F601822F30E2882319F07A
:100B500031938150FBCFC20ED11C20E0992329F0A4
:100B6000D6019C93F60131966F01C6010396E2FE11
:100B70000BC039E4D6013C933EE411963C931197A7
:100B800036E412963C9307C039E6F60130833EE620
:100B9000318336E63283FC01322F40E2332319F0F1
:100BA00041933150FBCFFC01E20FF11D10828EEF1B
:100BB0009FEFB7C0F1E0911101C0F0E06F2F70E03E
:100BC0001416150624F49A012F5F3F4F02C021E04E
:100BD00030E0260F371FBB2029F06B2D70E06F5FD0
:100BE0007F4F02C060E070E0260F371F612F70E07A
:100BF000261737071CF4121B212F01C020E03E2DC1
:100C0000387159F4D601322F60E2332319F06D9315
:100C10003150FBCFC20ED11C20E0FF2331F0D601B2
:100C20009C93B6016F5F7F4F6B01E1110BC0F60122
:100C3000922F30E3992319F031939150FBCFC20EDC
:100C4000D11C20E09F2D940F3A81782F7071A72E30
:100C500084FF03C0313309F49150191624F49930FC
:100C600018F098E001C091E0E42F852F57FF02C0F3
:100C7000E0E080E06E2F782FE0E0F0E0AEE29A2E28
:100C80003A01691A71082A01461A570A0B2D10E019
:100C90001195019511096F3F8FEF780729F4D6015F
:100CA0009C92C60101966C014617570784F06616A0
:100CB00077066CF47F01E40CF51CA1E0B0E0AC0F0A
:100CC000BD1FEA0EFB1ED7011196BC9002C090E337
:100CD000B92E615071093196C60101967C016017E9
:100CE000710724F0D601BC926C01D5CF641775074B
:100CF00041F4363320F4353321F4A11002C081E3EE
:100D0000B82EF601B082F701822F90E2882319F005
:100D100091938150FBCFF701E20FF11D108280E02B
:100D200090E029960FB6F894DEBF0FBECDBFDF91DD
:100D3000CF911F910F91FF90EF90DF90CF90BF90D8
:100D4000AF909F907F906F905F904F900895283064
:100D500008F027E03327DA01990F311D87FD9160F4
:100D600000966105710539F432602E5F3D9330E3E2
:100D70002A95E1F708959F3F30F0803871056105AD
:100D800009F03C5F3C5F3D93913008F08068911D15
:100D9000DF93CF931F930F93FF92EF92192F987FBA
:100DA0009695E92F96959695E90FFF27EE53FF4FFD
:100DB00099273327EE24FF24A701E7010590089423
:100DC000079428F4360FE71EF81E491F511D660FC1
:100DD000771F881F991F0694A1F70590079428F4A0
:100DE000E70EF81E491F561FC11D770F881F991F58
:100DF000661F0694A1F70590079428F4F80E491F82
:100E0000561FC71FD11D880F991F661F771F069495
:100E1000A1F70590079420F4490F561FC71FD81F4C
:100E2000990F661F771F881F0694A9F78491109564
:100E3000177041F0D695C79557954795F794E79465
:100E40001A95C1F7E8E6F0E0689415901591359190
:100E50006591959105907FE27395E118F10A430B36
:100E6000560BC90BD009C0F7E10CF11E431F561FEA
:100E7000C91FD01D7EF4703311F48A95E6CFE89433
:100E8000015030F0080F0AF40027021708F4202F51
:100E90002395022F7A3328F079E37D932A95E9F799
:100EA00010C07D932A9589F6069497956795379596
:100EB00017951794E118F10A430B560BC90BD0098B
:100EC00098F023957E9173957A3308F070E37C93C4
:100ED0002013B8F77E9170617D9330F0839571E3B4
:100EE0007D9370E32A95E1F71124EF90FF900F9125
:100EF0001F91CF91DF91992787FD90950895F894E0
:020F0000FFCF21
:00000001FF
