:100000000C94B1000C94C6000C94C6000C94C6006D
:100010000C94C6000C94C6000C94C6000C94C60048
:100020000C94C6000C94C6000C94C6000C94C60038
:100030000C94C6000C94C6000C94C6000C94C60028
:100040000C94C6000C94C6000C94C6000C94C60018
:100050000C94C6000C94C6000C94C6000C94C60008
:100060000C94C6000C94C60000407A10F35A00A00D
:10007000724E18090010A5D4E80000E87648170071
:1000800000E40B54020000CA9A3B000000E1F505B1
:10009000000080969800000040420F000000A086FB
:1000A00001000000102700000000E803000000002D
:1000B0006400000000000A000000000001000000D1
:1000C00000002C76D888DC674F0823DFC1DFAE59EB
:1000D000E1B1B796E5E3E453C63AE651997696E87E
:1000E000E6C28426EB898C9B62ED407C6FFCEFBC02
:1000F0009C9F40F2BAA56FA5F490055A2AF75C932D
:100100006B6CF9676DC11BFCE0E40D47FEF520E662
:10011000B500D0ED902E0300943577050080841E45
:10012000080000204E0A000000C80C333333330FA0
:10013000986E12831141EF8D2114893BE65516CF3D
:10014000FEE6DB18D1844B381BF77C1D901DA4BB49
:10015000E424203284725E228100C9F124ECA1E5FE
:100160003D2711241FBECFEFD4E0DEBFCDBF11E08D
:10017000A0E0B1E0EEE6FBE002C005900D92A231F6
:10018000B107D9F70E94AE010C94B5050C9400009C
:10019000CF92DF92EF92FF920F931F93CF93DF9353
:1001A00000D000D01F92CDB7DEB77C01FE013196A2
:1001B00085E0DF011D928A95E9F7389A409A87EA2F
:1001C00091E60197F1F700C00000409896EA9A95F1
:1001D000F1F700C0409A3898ADE0AA95F1F7000019
:1001E000309B02C08FEF83C0BAE1BA95F1F700C02F
:1001F000309BF8CF4AE14A95F1F700C0A1E0B0E0AA
:1002000085E08E0F27E030E090E049EC50E0309937
:1002100004C041505109D9F7E5CF4AE04A95F1F7BA
:10022000309B07C0AD01022E01C0440F0A94EAF7CB
:10023000942B49EC50E0309B04C041505109D9F750
:10024000D1CF2150310908F791938E13DBCF389A23
:10025000409A87EA91E60197F1F700C000003981E2
:100260000A818B819C81202F230F280F290F4D811C
:100270002413B8CF6B0110E0132B692F70E0782B9B
:1002800077FF14C07F7780E090E00E947D0220E03D
:1002900030E040E251E40E940B02DC01CB01B05897
:1002A000F70180839183A283B38310C080E090E044
:1002B0000E947D0220E030E040E251E40E940B0207
:1002C000D7016D937D938D939C931397B80180E034
:1002D00090E00E947D0220E030E040E251E40E9484
:1002E0000B02F601608371838283938380E00F9019
:1002F0000F900F900F900F90DF91CF911F910F9162
:10030000FF90EF90DF90CF900895CF93DF9300D0D0
:1003100000D0CDB7DEB719821A821B821C82BE01C3
:100320006F5F7F4F0E94C8000F900F900F900F904B
:10033000DF91CF9108959091C00095FFFCCF8093FD
:10034000C6000895CF93DF93EC018991882319F0BB
:100350000E949B01FACFDF91CF910895CF93DF9355
:10036000CDB7DEB72A970FB6F894DEBF0FBECDBF6C
:1003700088E18093C1001092C5008CE08093C40096
:100380008091C20086608093C20080E091E00E946C
:10039000A2011F82188619861A863D98CE010796FB
:1003A0000E9485018F3F59F06F81788589859A85F4
:1003B0008E010F5F1F4F21E044E00E942F0386B1A2
:1003C00088E091E00E94A201CE0101960E94A20164
:1003D0008DE091E00E94A201559A20E030E040ECCF
:1003E00051E46F81788589859A850E94060287FF8E
:1003F00002C05D9A01C05D982FED83E994E0215021
:1004000080409040E1F700C00000C8CF0E94BA02CF
:1004100008F481E008950E941F020C94F5020E94E6
:10042000EE0258F00E94E70240F029F45F3F29F005
:100430000C94DE0251110C9429030C94E4020E94E6
:10044000060368F39923B1F3552391F3951B550BDC
:10045000BB27AA2762177307840738F09F5F5F4F97
:10046000220F331F441FAA1FA9F335D00E2E3AF0D6
:10047000E0E832D091505040E695001CCAF72BD0EE
:10048000FE2F29D0660F771F881FBB1F261737073F
:100490004807AB07B0E809F0BB0B802DBF01FF2771
:1004A00093585F4F3AF09E3F510578F00C94DE026E
:1004B0000C9429035F3FE4F3983ED4F38695779537
:1004C0006795B795F7959F5FC9F7880F911D96952A
:1004D000879597F90895E1E0660F771F881FBB1F86
:1004E000621773078407BA0720F0621B730B840B33
:1004F000BA0BEE1F88F7E0950895E89409C097FBC2
:100500003EF490958095709561957F4F8F4F9F4FEA
:100510009923A9F0F92F96E9BB279395F69587952E
:1005200077956795B795F111F8CFFAF4BB0F11F4F1
:1005300060FF1BC06F5F7F4F8F4F9F4F16C0882398
:1005400011F096E911C0772321F09EE8872F762FCE
:1005500005C0662371F096E8862F70E060E02AF00F
:100560009A95660F771F881FDAF7880F96958795FB
:1005700097F90895990F0008550FAA0BE0E8FEEFD0
:1005800016161706E807F907C0F012161306E40757
:10059000F50798F0621B730B840B950B39F40A2650
:1005A00061F0232B242B252B21F408950A2609F42E
:1005B000A140A6958FEF811D811D089597F99F6732
:1005C00080E870E060E008959FEF80EC08950024DB
:1005D0000A941616170618060906089500240A94A8
:1005E00012161306140605060895092E0394000C2E
:1005F00011F4882352F0BB0F40F4BF2B11F460FFBD
:1006000004C06F5F7F4F8F4F9F4F089557FD9058E5
:10061000440F551F59F05F3F71F04795880F97FBC6
:10062000991F61F09F3F79F0879508951216130680
:100630001406551FF2CF4695F1DF08C016161706AF
:100640001806991FF1CF86957105610508940895E4
:10065000E894BB2766277727CB0197F90895EF9297
:100660000F931F93CF93DF93E80147FD02C034E05F
:1006700001C034E1E42F440FFF0BF7FF03C0F195F5
:10068000E195F109E32E022F2E2FAE010E944F03B8
:10069000CE01DF91CF911F910F91EF9008954F926E
:1006A0005F926F927F929F92AF92BF92CF92DF92B2
:1006B000EF92FF920F931F93CF93DF93CDB7DEB7E7
:1006C00029970FB6F894DEBF0FBECDBF6A01122F77
:1006D000B02E2BE3201720F0FF24F394F00E02C07D
:1006E000BCE3FB2E0F2D27E0AE014F5F5F4F0E9452
:1006F000DD04AC018981982F9970913031F0E1FCD3
:1007000006C0E0FE06C090E205C09DE203C09BE289
:1007100001C090E0EE2DE07183FF3CC0911102C05A
:1007200083E001C084E0811718F4212F281B01C049
:1007300020E0E1110BC0F601822F30E2882319F08E
:1007400031938150FBCFC20ED11C20E0992329F0B8
:10075000D6019C93F60131966F01C6010396E2FE25
:100760000AC03EE4D6013C9341E411964C931197A4
:1007700012963C9306C03EE6F601308341E6418383
:100780003283FC01322F40E2332309F442C041930B
:100790003150FACF82FF44C0911102C083E001C002
:1007A00084E0811718F4212F281B01C020E0E111FB
:1007B0000BC0F601822F30E2882319F0319381506B
:1007C000FBCFC20ED11C20E0992329F0D6019C93C7
:1007D000F60131966F01C6010396E2FE0BC039E4C3
:1007E000D6013C933EE411963C93119736E4129661
:1007F0003C9307C039E6F60130833EE6318336E6A6
:100800003283FC01322F40E2332319F041933150FF
:10081000FBCFFC01E20FF11D10828EEF9FEFB7C0FE
:10082000F1E0911101C0F0E06F2F70E01416150691
:1008300024F49A012F5F3F4F02C021E030E0260FE1
:10084000371FBB2029F06B2D70E06F5F7F4F02C018
:1008500060E070E0260F371F612F70E02617370722
:100860001CF4121B212F01C020E03E2D387159F4D9
:10087000D601322F60E2332319F06D933150FBCF54
:10088000C20ED11C20E0FF2331F0D6019C93B601AB
:100890006F5F7F4F6B01E1110BC0F601922F30E3C8
:1008A000992319F031939150FBCFC20ED11C20E057
:1008B0009F2D940F3A81782F7071A72E84FF03C06B
:1008C000313309F49150191624F4993018F098E056
:1008D00001C091E0E42F852F57FF02C0E0E080E0E7
:1008E0006E2F782FE0E0F0E0AEE29A2E3A01691A1E
:1008F00071082A01461A570A0B2D10E0119501952F
:1009000011096F3F8FEF780729F4D6019C92C60139
:1009100001966C014617570784F0661677066CF44B
:100920007F01E40CF51CA1E0B0E0AC0FBD1FEA0EA6
:10093000FB1ED7011196BC9002C090E3B92E615006
:1009400071093196C60101967C016017710724F088
:10095000D601BC926C01D5CF6417750741F43633CC
:1009600020F4353321F4A11002C081E3B82EF60142
:10097000B082F701822F90E2882319F09193815081
:10098000FBCFF701E20FF11D108280E090E0299685
:100990000FB6F894DEBF0FBECDBFDF91CF911F9190
:1009A0000F91FF90EF90DF90CF90BF90AF909F900E
:1009B0007F906F905F904F900895283008F027E067
:1009C0003327DA01990F311D87FD9160009661058B
:1009D000710539F432602E5F3D9330E32A95E1F7DB
:1009E00008959F3F30F080387105610509F03C5F44
:1009F0003C5F3D93913008F08068911DDF93CF9369
:100A00001F930F93FF92EF92192F987F9695E92FDE
:100A100096959695E90FFF27EE53FF4F99273327B9
:100A2000EE24FF24A701E70105900894079428F419
:100A3000360FE71EF81E491F511D660F771F881FCE
:100A4000991F0694A1F70590079428F4E70EF81E65
:100A5000491F561FC11D770F881F991F661F0694D7
:100A6000A1F70590079428F4F80E491F561FC71FD9
:100A7000D11D880F991F661F771F0694A1F7059057
:100A8000079420F4490F561FC71FD81F990F661FE0
:100A9000771F881F0694A9F784911095177041F06D
:100AA000D695C79557954795F794E7941A95C1F74A
:100AB000E8E6F0E06894159015913591659195916F
:100AC00005907FE27395E118F10A430B560BC90BB1
:100AD000D009C0F7E10CF11E431F561FC91FD01DDE
:100AE0007EF4703311F48A95E6CFE894015030F02B
:100AF000080F0AF40027021708F4202F2395022F6D
:100B00007A3328F079E37D932A95E9F710C07D9335
:100B10002A9589F6069497956795379517951794B2
:100B2000E118F10A430B560BC90BD00998F0239535
:100B30007E9173957A3308F070E37C932013B8F7B5
:100B40007E9170617D9330F0839571E37D9370E3C6
:100B50002A95E1F71124EF90FF900F911F91CF910B
:0E0B6000DF91992787FD90950895F894FFCFB7
:100B6E0072656164790A0D0054203D200020430A0D
:020B7E000D0068
:00000001FF
