:100000000C9434000C9451000C9451000C94510049
:100010000C943C010C9451000C9451000C94510030
:100020000C9451000C9451000C9451000C949701C5
:100030000C9451000C9451000C9451000C945100FC
:100040000C9451000C9451000C9451000C945100EC
:100050000C9451000C9451000C9451000C945100DC
:100060000C9451000C94510011241FBECFEFD4E02A
:10007000DEBFCDBF11E0A0E0B1E0EAEAF4E002C0EB
:1000800005900D92AC30B107D9F721E0ACE0B1E0BA
:1000900001C01D92AA31B207E1F70E94C4010C947D
:1000A00053020C940000EF920F93CF93DF93CDB7E0
:1000B000DEB72D970FB6F894DEBF0FBECDBF9C8381
:1000C0008B836D834E832F830887E98681EC90E0D4
:1000D00028E1FC0120838B819C819C01990F440BBA
:1000E000550B80ED92E1A3E1B0E0BC01CD010E948F
:1000F0003102DA01C90101979A83898385EC90E086
:1001000029813A81232F3327FC01208384EC90E05E
:100110002981FC0120838D81813029F480EC90E0DD
:1001200022E0FC0120838E81882F90E087309105AA
:10013000B1F0883091051CF4069739F02EC0883054
:100140009105B9F00997F9F028C082EC90E022EC13
:1001500030E0F90120812260FC0120831EC082EC86
:1001600090E022EC30E0F90120812460FC01208342
:1001700014C082EC90E022EC30E0F901208126608E
:10018000FC0120830AC082EC90E022EC30E0F9010F
:1001900020812E60FC01208300008F81882349F498
:1001A00082EC90E022EC30E0F90120812062FC0139
:1001B00020838F81813049F482EC90E022EC30E0A2
:1001C000F90120812063FC0120838885823029F495
:1001D00082EC90E028E0FC0120838985882349F0A7
:1001E00081EC90E021EC30E0F90120812068FC01F5
:1001F00020832D960FB6F894DEBF0FBECDBFDF91E2
:10020000CF910F91EF900895CF93DF931F92CDB7C9
:10021000DEB78983000080EC90E0FC018081882FAC
:1002200090E080729927892BB1F386EC90E02981C8
:10023000FC0120830F90DF91CF910895CF93DF933E
:1002400000D0CDB7DEB79A8389830BC089819A81AC
:100250009C012F5F3F4F3A832983FC0180810E94DC
:10026000040189819A81FC018081882379F70F90AC
:100270000F90DF91CF9108951F920F9200905F0031
:100280000F9211242F933F938F939F93EF93FF939C
:10029000CF93DF93CDB7DEB786E290E0FC0180819B
:1002A000882F90E081709927892B99F580910C0116
:1002B00090910D01892B39F581E090E090930D012B
:1002C00080930C0184E890E0FC011182108210926E
:1002D000160110921701109218011092190186E36D
:1002E00090E0FC018081882F90E082709927892B13
:1002F00081F086E390E026E330E0F901208122607E
:10030000FC01208306C081E090E090930F01809370
:100310000E01DF91CF91FF91EF919F918F913F91CE
:100320002F910F9000925F000F901F9018951F92D1
:100330000F9200905F000F9211248F939F93AF93C1
:10034000BF93CF93DF93CDB7DEB780911601909125
:100350001701A0911801B09119019C5FAF4FBF4FD9
:100360008093160190931701A0931801B09319017F
:10037000DF91CF91BF91AF919F918F910F9000929C
:100380005F000F901F901895EF920F93CF93DF931C
:10039000CDB7DEB72E970FB6F894DEBF0FBECDBF38
:1003A0000E94F3010E941102E12C01E022E048E0EA
:1003B00060E080E091EE0E94530084E290E024E24D
:1003C00030E0F90120812660FC01208380E091E08B
:1003D0000E941E0119821A821B821C8286E091E013
:1003E0000E941E01F7CFCF93DF93CDB7DEB787E230
:1003F00090E027E230E0F9012081FC01208388E6CB
:1004000090E028E630E0F90120812260FC012083A1
:100410008CE690E021E0FC0120837894DF91CF917D
:100420000895CF93DF93CDB7DEB780E890E0FC016D
:10043000108281E890E029E0FC01208388E890E0C8
:100440002FEF33E0FC01318320838FE690E02FE62D
:1004500030E0F90120812260FC012083DF91CF91FF
:100460000895A1E21A2EAA1BBB1BFD010DC0AA1FF5
:10047000BB1FEE1FFF1FA217B307E407F50720F00D
:10048000A21BB30BE40BF50B661F771F881F991F88
:100490001A9469F760957095809590959B01AC01D1
:0A04A000BD01CF010895F894FFCFCD
:0C04AA0052656164790074657374000091
:00000001FF
